:100A520082500000A04000000000000000000000E2
:100A62000000000000000000000000000000000084
:100A72000000000000000000000000000000000074
:100A82000000000000000000000000000000000064
:100A92000000000000000088480000000000000084
:0B0AA2000088407FBFDFEFF7FBFDFE88
:100B7D007C007D641202C1EF1FAC0670011E4C702B
:010B8D00F671
:010B8E002244
:100B3400C2B6C2CDE4FEEFC4131313540124FF92D2
:100B4400B4EF25E0FFD2B60000C2B60EEEB408E65C
:060B5400D2B50000C2B59D
:010B5A002278
:1006EC00E4FFFEE478BAF208F2785BE2B50717187B
:1006FC00E2B5061278BAE2FC08E2FD7859E26D70B8
:10070C000318E26C601D7861E2B5072818E2B506A3
:10071C002378BAE2FC08E2FD785FE2B5051618E230
:10072C00B5041178BA08E2FDEF75F008A424002D89
:10073C00F87401F278BBE22401F218E23400F208FA
:10074C00E26408700218E270A00FBF00010EEF64A3
:10075C00084E708FE4FEFFD37853E29F18E29E4060
:10076C0029AD07ED25E025E02462F808E2FCED2533
:10077C00E025E02464F808E275F008A424002CF8C5
:0A078C007401F20FBF00010E80CDD2
:010796002240
:10091E00E4FFFEAD0774302DF8E225E0FC74382DAF
:10092E00F8E22CFDAC0774282CF8E225E025E02D2A
:10093E00FD74202CF8E275F008A42DFDAC07741898
:10094E002CF8E2C454F02DFD74102CF8E2C433548C
:10095E00E02DFDAC0774082CF8E275F040A42DFDD7
:10096E0074002CF8E275F080A42DFD74482FF8ED7C
:0C097E00F20FBF00010EEF64084E7097EE
:01098A00224A
:1008AC0012091EE4FBFAAF0374402FF8E2F58074D2
:1008BC00482FF8E2FF120B347F017E00120B7DE40F
:1008CC00FF120B340BBB00010AEB64084A70D77F94
:1008DC00017E00120B7DE4FAFBE478BAF208F278A0
:1008EC00BAE2FE08E2FFC39408EE94005018EB75D0
:1008FC00F008A424002FF8E4F278BBE22401F218EB
:10090C00E23400F280D90BBB00010AEB64084A7098
:01091C00C812
:01091D0022B7
:090B9E001206EC12091E0208AC5B
:100B5B0078B8E4F20804F212000312098BD378B9C7
:100B6B00E2940018E294004008120B9E120B8F8047
:010B7B00EC8D
:010B7C002256
:100AFC007FBFDFEFF7FBFDFE203022040422302005
:100B0C007FBFDFEFF7FBFDFE00006385899161007D
:100B1C000000428191916E0020402402022440206A
:080B2C00000000227E0200001F
:040AAD0082B2000011
:10098B00120AB27C007D081202D3785EECF208EDFD
:10099B00F2120AB27C007D081202D37860ECF208E6
:1009AB00EDF27858E4F2087403F208E4F2087403E9
:1009BB00F27854E4F20804F2E408F208F27852F206
:1009CB00087402F2E4785CF208F27862F2087402BE
:1009DB00F208E4F2087403F208E4F20804F208E403
:0609EB00F2087403F22281
:1005030078B3E22401F218E23400F208E2641E70C8
:100513000218E2600302062078B2F208F27855E28C
:10052300700218E270097857E2700218E2606B7883
:1005330053E224FFFF18E234FFFED3EF9400EE945E
:1005430000403DAD07ED25E025E0245EF8E2FA0822
:10055300E2FBED25E025E02462F8EAF208EBF2ED98
:1005630025E025E02460F8E2FA08E2FBED25E0252A
:10057300E02464F8EAF208EBF2EF1F70BD1E80BAC4
:100583007858E2FF08E27862CFF208EFF2785AE295
:10059300FF08E27864CFF208EFF27854E2FE08E253
:1005A300FF7859E22FF218E23EF27856E2FC08E2B5
:1005B300FD785BE22DF218E23CF2EF64014E700F1E
:1005C30018E26408700218E270057858F208F278AD
:1005D30055E2B4FF1618E2B4FF117859E2B4FF0BE9
:1005E30018E2B4FF06E4F2087407F2ED64014C70FC
:1005F30010785BE26408700218E27005785AF2081A
:10060300F27857E2B4FF1618E2B4FF11785BE2B454
:0D061300FF0B18E2B4FF06E4F2087407F2D2
:0106200022B7
:1008230020B11F7F017E00120B7D20B1157855E2A8
:10083300700218E2600CE47854F208F274FF08F2D4
:1008430008F220B0207F017E00120B7D20B01678C5
:1008530057E2700218E2600DE47856F208F274FF72
:100863007854F208F220B21E7F017E00120B7D2025
:10087300B2147855E2700218E2600BE47854F2087F
:10088300F208F20804F220B31F7F017E00120B7DF1
:1008930020B3157857E2700218E2600CE47856F240
:0908A30008F27854F20804F22274
:10037600785EE2FE08E2FF7859E26F700318E26EDB
:1003860060030205027860E2FE08E2FF785BE26F36
:10039600700318E26E60030205027853E22401F24C
:1003A60018E23400F208E224FF79BBF318E234FFC6
:1003B60019F3D378BBE2940018E29400404408E2B3
:1003C600FFFD25E025E0245EF8E2FA08E2FBED25D4
:1003D600E025E02462F8EAF208EBF2EF25E025E0FA
:1003E6002460F8E2FC08E2FDEF25E025E02464F84D
:1003F600ECF208EDF278BBE224FFF218E234FFF2E9
:1004060080B07858E2FF08E27862CFF208EFF2781F
:100416005AE2FF08E27864CFF208EFF2785EE2FF74
:1004260008E27858CFF208EFF27860E2FF08E27847
:100436005ACFF208EFF28024785EE2FE08E2FF78F7
:1004460059E2B5073B18E2B506367860E2FE08E2E7
:10045600FF785BE2B5072918E2B50624120AB27CDA
:10046600007D081202D3785EECF208EDF2120AB2B1
:100476007C007D081202D37860ECF208EDF280B8B9
:10048600E478BAF208F27852E2FE08E2FFC378BBDB
:10049600E29F18E29E506578BA08E2FF25E025E063
:1004A6002463F9785EE2FC08E2FDE36D700319E36C
:1004B6006C703CEF25E025E02465F97860E2FE08E3
:1004C600E2FFE3B5072919E3B50624120AB27C0058
:1004D6007D081202D3785EECF208EDF2120AB27CC5
:1004E600007D081202D37860ECF208EDF280A8785D
:0C04F600BBE22401F218E23400F2808A1C
:0105020022D6
:100621007F017E007D017C00D37853E29D18E29C1E
:100631004045A905E925E025E02462F8E2FA08E24F
:10064100FB7859E2B5032918E2B50224E925E02532
:10065100E02464F8E2FA08E2FB785BE2B5031118E2
:10066100E2B5020CE4FEFF7854F208F208F208F257
:0B0671000DBD00010C80B1EF4E706F5A
:10067C0078BC7C007DFE7BFF7A0A79FCFE7F081239
:10068C00029B78C47C007DFE7BFF7A0B79047E0094
:10069C007F0812029B30B33EE478BAF208F278BAC3
:1006AC00E2FE08E2FFC39408EE940050E874BC2FFD
:1006BC00F8E2F58074C42FF8E2FF120B347F017E50
:1006CC0000120B7DE4FF120B3478BBE22401F2180C
:0F06DC00E23400F280C875A0FF12000312098BF0
:0106EB0022EC
:1009F1007853E224FEFF18E234FFFE785CF208EF40
:100A0100F2EE704CEF14B408005045900A1A75F0DC
:100A110003A4C58325F0C58373020A32020A360294
:100A21000A3A020A3E020A42020A46020A4A020A35
:100A31004E75A0FE2275A0FC2275A0F82275A0F0CB
:100A41002275A0E02275A0C02275A08022E4F5A045
:010A51002282
:1000030078CC7C007DFE7BFF7A0B790C7E007F0829
:1000130012029B78D47C007DFE7BFF7A0B79147EE1
:10002300007F0812029B78DC7C007DFE7BFF7A0B4D
:10003300791C7E007F0812029B78E47C007DFE7BA6
:10004300FF7A0B79247E007F0812029B78EC7C00F8
:100053007DFE7BFF7A0B792C7E007F0812029BE4E6
:1000630078F6F208F2C378F7E294C818E2940050E5
:100073004808E22401F218E23400F2E478F4F208CA
:10008300F278F4E2FE08E2FFC39408EE940050D540
:1000930074CC2FF8E2F58074E42FF8E2FF120B34EE
:1000A3007F017E00120B7DE4FF120B3478F5E2240E
:1000B30001F218E23400F280C8E478F6F208F2C3E1
:1000C30078F7E2946418E29400504808E22401F2BD
:1000D30018E23400F2E478F4F208F278F4E2FE086D
:1000E300E2FFC39408EE940050D574CC2FF8E2F5E8
:1000F3008074DC2FF8E2FF120B347F017E00120BB9
:100103007DE4FF120B3478F5E22401F218E23400A7
:10011300F280C8E478F6F208F2C378F7E294641840
:10012300E29400504808E22401F218E23400F2E4B9
:1001330078F4F208F278F4E2FE08E2FFC39408EEE2
:10014300940050D574CC2FF8E2F58074D42FF8E2E4
:10015300FF120B347F017E00120B7DE4FF120B3480
:1001630078F5E22401F218E23400F280C8E478F66C
:10017300F208F2C378F7E2946418E2940050480856
:10018300E22401F218E23400F2E478F4F208F2789F
:10019300F4E2FE08E2FFC39408EE940050D574CC59
:1001A3002FF8E2F58074EC2FF8E2FF120B347F0195
:1001B3007E00120B7DE4FF120B3478F5E22401F28A
:0701C30018E23400F280C8CD
:0101CA002212
:0F0B8F001205031208231203761206210209F140
:030000000207975D
:0C079700787FE4F6D8FD7581070207DECC
:1001CB00E709F608DFFA8046E709F208DFFA803E16
:1001DB0088828C83E709F0A3DFFA8032E309F60803
:1001EB00DFFA8078E309F208DFFA807088828C836B
:1001FB00E309F0A3DFFA806489828A83E0A3F6081F
:10020B00DFFA805889828A83E0A3F208DFFA804CF8
:10021B0080D280FA80C680D4806980F280338010CF
:10022B0080A680EA809A80A880DA80E280CA803338
:10023B0089828A83ECFAE493A3C8C582C8CCC583B0
:10024B00CCF0A3C8C582C8CCC583CCDFE9DEE78080
:10025B000D89828A83E493A3F608DFF9ECFAA9F0FF
:10026B00EDFB2289828A83ECFAE0A3C8C582C8CC55
:10027B00C583CCF0A3C8C582C8CCC583CCDFEADE6E
:10028B00E880DB89828A83E493A3F208DFF980CCD0
:10029B0088F0EF60010E4E60C388F0ED2402B404C9
:1002AB000050B9F582EB2402B4040050AF23234570
:0602BB00822390021B7378
:1002C100EF8DF0A4A8F0CF8CF0A428CE8DF0A42E51
:0202D100FE220B
:1002D300C2D5EC30E709B2D5E4C39DFDE49CFCEE46
:1002E30030E715B2D5E4C39FFFE49EFE120309C3B2
:1002F300E49DFDE49CFC800312030930D507C3E4AD
:060303009FFFE49EFE22B4
:100AB20078B412035E7810EC4D4E4F70047CA57D25
:100AC200A5C3EC13FCED13FDEE13FEEF13FF501064
:100AD200EC64CCFCED644CFDEE644EFEEF64CEFFA4
:100AE200D8DF78B412036AEE547FFE2278B4EEF2B5
:0A0AF200EF08F20874A5F208F222E2
:1007A300020B5BE493A3F8E493A34003F68001F206
:1007B30008DFF48029E493A3F85407240CC8C33357
:1007C300C4540F4420C8834004F456800146F6DF26
:1007D300E4800B0102040810204080900A52E47E5A
:1007E300019360BCA3FF543F30E509541FFEE4931B
:1007F300A360010ECF54C025E060A840B8E493A3E2
:10080300FAE493A3F8E493A3C8C582C8CAC583CA0C
:10081300F0A3C8C582C8CAC583CADFE9DEE780BEC4
:010AB1000044
:10030900BC000BBE0029EF8DF084FFADF022E4CCD8
:10031900F875F008EF2FFFEE33FEEC33FCEE9DECA1
:10032900984005FCEE9DFE0FD5F0E9E4CEFD22EDE7
:10033900F8F5F0EE8420D21CFEADF075F008EF2F31
:10034900FFED33FD4007985006D5F0F222C398FD22
:050359000FD5F0EA22BF
:0C035E00E2FC08E2FD08E2FE08E2FF22DB
:0C036A00ECF208EDF208EEF208EFF222CF
:00000001FF
